:020000040800F2
:10000000E80B002091010008630C0008E7070008D6
:10001000410C0008A7060008A31800080000000013
:10002000000000000000000000000000E1130008D4
:10003000AB060008000000006B11000885150008E1
:10004000AB010008AB010008AB010008AB010008E0
:10005000AB010008AB010008AB010008AB010008D0
:10006000AB010008AB010008AB010008AB010008C0
:10007000AB010008AB010008AB010008AB010008B0
:10008000AB010008AB010008AB010008AB010008A0
:10009000AB010008AB010008AB010008AB01000890
:1000A000AB010008AB010008AB010008AB01000880
:1000B000E9150008AB010008AB010008AB0100081E
:1000C000AB010008AB010008AB010008AB01000860
:1000D000AB01000855160008AB010008AB01000891
:1000E000AB010008AB010008AB01000800F002F80A
:1000F00000F03FF80AA090E8000C82448344AAF183
:100100000107DA4501D100F034F8AFF2090EBAE880
:100110000F0013F0010F18BFFB1A43F0010318473B
:100120008C210000AC210000103A24BF78C878C1AF
:10013000FAD8520724BF30C830C144BF04680C60ED
:10014000704700000023002400250026103A28BF35
:1001500078C1FBD8520728BF30C148BF0B60704739
:10016000732900F00B82002070471FB51FBD10B52A
:1001700010BD00F06AFA1146FFF7F7FF01F0AAFB85
:1001800000F088FA03B4FFF7F2FF03BC01F092FB22
:100190000948804709480047FEE7FEE7FEE7FEE71B
:1001A000FEE7FEE7FEE7FEE7FEE7FEE70448054957
:1001B000054A064B7047000089150008ED0000084D
:1001C000E8050020E80B0020E8070020E8070020F1
:1001D0000FB4044910B503AA029800F0D3F910BC7B
:1001E0005DF814FB3400002070B50C460546012A6A
:1001F00005D02878800600D5EA69002302E00123B3
:1002000005E05B1C934202D2E05C0028F9D1A869AA
:10021000E618C01AA861286A184428622846AFF375
:10022000008004E0D5E9012114F8010B9047B442A5
:10023000F8D32846AFF3008070BD00002DE9F05FD1
:10024000894604464FF0000ADFF874B1FB44C0F859
:1002500020A02046E1688847002874D0252806D0D1
:10026000D4E901219047206A401C2062F1E7002672
:100270005F462046E16888472028054607DB312D88
:1002800005D2781910F8200C08B10643F1E7B00741
:1002900001D526F00406C4F81CA00027C4F818A055
:1002A0002A2D09D0284601F0FEFA38B304EB87085E
:1002B000303DC8F8185019E059F8041B204604EBEB
:1002C00087029161E1688847012F054618D1E069EE
:1002D000002820DA26F020061DE0D8F8180000EBF0
:1002E000800005EB40003038C8F818002046E1686F
:1002F0008847054601F0D7FA0028EED1012F0AD031
:100300002E2D08D12046E16888477F1C0546022F24
:1003100046F02006C4DBA069002803DA404246F01C
:100320000106A061F00701D026F010066C2D0BD05D
:10033000682D09D04C2D39D06A2D35D0742D35D08B
:100340007A2D33D016E038E0E1682F462046884702
:10035000B842054609D16C2F26D04FF48060E16881
:10036000064320468847054604E06C2F1AD04FF418
:10037000807006430DB3A5F14100192802D820353D
:1003800046F400664A462946204626604E46FFF758
:10039000E7FE80B101280BD0F61D26F0070000F122
:1003A000080956E74020E4E78020D8E70020D6E798
:1003B00006F104094DE7284652E7206ABDE8F09FA0
:1003C0001A20000040EA0103024630B59B0710D115
:1003D0004FF0013400E008C208C91D1B9D4315EA17
:1003E000C41FF8D013F0FF0102F8011B0DD01B0A47
:1003F000F8E711F8013B002B02F8013B05D011F89A
:10040000013B002B02F8013BF3D130BD10B5431C7A
:1004100002E010F8011B71B18107FAD14FF00132EF
:1004200002C88C1A8C4314EAC211F9D0C01A0A0609
:1004300003D0C01E10BDC01A10BD0A0401D0801E1A
:1004400010BD0902FCD0401E10BD10B5044610F0CE
:10045000030F08BF11F0030F40F015804FF0013E6D
:10046000121FC0F20E8051F8043BA3EB0E0C2CEAD5
:10047000030C1CEACE1C08BF40F8043BF0D0A1F1ED
:10048000040102F10402521E08DB11F8013B002BAB
:1004900000F8013BF7D1114600F086F8204610BD68
:1004A0004FF0013C50F8042B51F8043B9A4221D103
:1004B000A2EB0C03934313EACC1317D150F8042B8F
:1004C00051F8043B9A4215D1A2EB0C03934313EA73
:1004D000CC130BD150F8042B51F8043B9A4209D1AC
:1004E000A2EB0C03934313EACC13DBD04FF00000D4
:1004F000704700BFD01A01BAB1FA81F101F01801BA
:1005000022FA01F0CB40C1F12001DBB2C0B2C01A27
:100510002CFA01F3D11A914311EAC311E6D17047C5
:10052000704770477047000001694A1C02610878F3
:10053000704700B58FB0CDE9013100210591054923
:100540007944CDE9031011466846FFF777FE0FB0F6
:1005500000BD0000E5FFFFFF10B5436913B1AFF325
:10056000008001E0FFF740FE012010BD127800F18D
:1005700024010A7000224A700122EDE711684FF051
:10058000FF32E9E7074B70B50D467B44FFF7D1FF1B
:100590000446284600F02EF810B14FF0FF3070BD31
:1005A000204670BD2B1300004FF000020429C0F05C
:1005B000128010F0030C00F02380CCF1040CBCF18D
:1005C000020F18BF00F8012BA8BF20F8022BA1EBE7
:1005D0000C0100F015B85FEAC17C24BF00F8012BC4
:1005E00000F8012B48BF00F8012B70470048704706
:1005F00088050020007B00F0800070474FF000026B
:1006000000B5134694469646203922BFA0E80C5008
:10061000A0E80C50B1F12001BFF4F7AF090728BFE3
:10062000A0E80C5048BF0CC05DF804EB890028BF5F
:1006300040F8042B08BF704748BF20F8022B11F088
:10064000804F18BF00F8012B70477546FFF7CEFFAB
:10065000AE4605006946534620F00700854618B0AF
:1006600020B5FFF7A3FDBDE820404FF000064FF096
:1006700000074FF000084FF0000B21F00701AC46D7
:10068000ACE8C009ACE8C009ACE8C009ACE8C009F6
:100690008D46704710B50446AFF300802046BDE894
:1006A0001040FFF76FBD00BFFEE770472DE9F04136
:1006B000024600250026002000230024002791F890
:1006C00003C00CF00F0591F803C00CF0100CBCF146
:1006D000000F03D091F802C04CEA050591F800C064
:1006E000BCF1000F31D0146800202BE04FF0010C5A
:1006F0000CFA00F3B1F800C00CEA03069E4220D1C8
:1007000083004FF00F0C0CFA03F7BC4305FA03FC0F
:100710004CEA040491F803C0BCF1280F06D14FF055
:10072000010C0CFA00FCC2F814C00AE091F803C0F6
:10073000BCF1480F05D14FF0010C0CFA00FCC2F8D7
:1007400010C0401C0828D1D31460B1F800C0BCF11F
:10075000FF0F34DD546800202EE000F1080C4FF04C
:10076000010808FA0CF3B1F800C00CEA03069E4237
:1007700021D183004FF00F0C0CFA03F7BC4305FAAC
:1007800003FC4CEA040491F803C0BCF1280F05D126
:1007900000F1080C08FA0CF8C2F8148091F803C0B4
:1007A000BCF1480F07D100F1080C4FF0010808FA1E
:1007B0000CF8C2F81080401C0828CED35460BDE865
:1007C000F0810246002093680B400BB1012000E04D
:1007D0000020704741617047016170470AB10161B3
:1007E00000E04161704700BFFEE7000070B50446BD
:1007F0000D46207820B1012811D002286FD152E097
:100800000020A080624921F81500624921F81500F6
:10081000284600F0C5F8012800D120705FE0A088CC
:10082000142802DA1420A0803CE0A088282803DAEB
:10083000A088401CA08035E05748405D012823D0A7
:10084000534830F8150040F2DC51884216DA50481F
:1008500030F81500401C4E4921F81500284600F0DC
:100860009FF801281ED04C48405D10B9022020702E
:1008700018E0002020704849485513E005202070FA
:100880000220454948550DE04348405D012809D103
:10089000284600F085F8012804D0042020700020AC
:1008A0003D4948551BE03B4830F81500B0F5967FB0
:1008B00012DA284600F074F8012805D120701420BF
:1008C000A080012034494855324830F81500401CBA
:1008D000304921F8150001E00320207000BF00BF5F
:1008E0002078032806D004280DD0052814D0062827
:1008F0004BD129E0A06818B10321284600F096FEEC
:100900000020207041E0A06818B10421284600F0C2
:100910008DFE0020207038E0A06818B1052128461F
:1009200000F084FE05EB45001C4901EB8000407897
:10093000012802D00020207005E006202070A07859
:10094000134921F8150020E0284600F029F8012875
:1009500016D10F4830F81500A17890FBF1F201FB99
:10096000120028B9A06818B10621284600F05EFEE2
:10097000074830F81500401C054921F8150003E030
:10098000002020700449485500BF00BF70BD000022
:10099000180000201E000020240000206404002015
:1009A00070B504460125074A02EBC4029188054A46
:1009B00052F83400FFF705FF05460DB9012070BD60
:1009C0000020FCE74C04002010B5002411E00A4888
:1009D00050F8340060B1084800EBC400808838B19A
:1009E000A1B204EB4402054B03EB8200FFF7FEFECD
:1009F000641C032CEBDB10BD4C04002064040020BD
:100A0000F8B50026002000902348244A1288811857
:100A1000802200F017F90646002538E0002432E075
:100A20001E4909884819C11700EB5161C911A0EB93
:100A3000C111194A515C1A4A52F824203DF8143069
:100A4000D25C91421AD13DF81400401C80B22DF8BE
:100A50001400134951F82400FFF7D8FC3DF8141096
:100A600088420ED800202DF81400681C0D4908801B
:100A70000B4951F8240000F017F80BE000202DF886
:100A80001400601CC4B2042CCADB681C85B2B542D9
:100A9000C4DB00BFF8BD00000805002030000020C6
:100AA0003C0000203200002010B504462BA1204657
:100AB000FFF7F6FC78B9002000F0B0F81023802290
:100AC0000021084600F010F9082327A2002108465B
:100AD00000F0E0FA3DE026A12046FFF7E1FC78B9FE
:100AE000002000F089F8102380220021084600F041
:100AF000FBF8082321A20021084600F0CBFA28E0E9
:100B000021A12046FFF7CCFC78B9012000F086F83F
:100B1000102380221946002000F0E6F808231DA2C9
:100B20001021002000F0B6FA13E01CA12046FFF7C8
:100B3000B7FC70B9012000F05FF81023802219463D
:100B4000002000F0D1F8082317A21021002000F0A7
:100B5000A1FA214617A0FFF73BFB10BD4C454430DE
:100B6000204F4E0D0A0000004C454430204F4E00EF
:100B70004C454430204F46460D0A00004C45443059
:100B8000204F4646000000004C454431204F4E0D9A
:100B90000A0000004C454431204F4E004C45443182
:100BA000204F46460D0A00004C454431204F464632
:100BB00000000000E8BF9BE8A18CE4BA8625730D15
:100BC0000A00000008B50121042000F08FFB10206E
:100BD0008DF803002120ADF8000003208DF80200FD
:100BE00069460448FFF762FD21210248FFF7F4FD42
:100BF00008BD00000008014010B5044624B90121D9
:100C00000548FFF7E9FD05E0012C03D1202102484A
:100C1000FFF7E2FD10BD00000008014010B50446DA
:100C200024B901210548FFF7D5FD05E0012C03D1CA
:100C300020210248FFF7CEFD10BD00000008014052
:100C400000BFFEE710B50346002006E0491C9C18D3
:100C50008C4200D81946441CA0B20C78002CF5D167
:100C600010BD704770B5002100230F22C47804B373
:100C7000154C246804F4E064C4F5E064210AC1F171
:100C80000403CA40447804FA03F1847814402143F1
:100C900009010E4C0678A155047804F01F050124C3
:100CA000AC4005786D11AD0005F1E025C5F80041B7
:100CB00009E0047804F01F050124AC40044D0678D7
:100CC000761145F8264070BD0CED00E000E400E030
:100CD00080E100E002490143024A116070470000D0
:100CE0000000FA050CED00E02DE9F04304460D4646
:100CF00016461F467F2C01DDBDE8F0833F2D00DD49
:100D0000FAE7A119802902DDC4F18001CEB2E91908
:100D1000402902DDC5F14001CFB2284630E023462C
:100D200029E04FEAE07C00EB5C7C4FEAEC0CDFF85A
:100D30005C8008EBCC1C1CF803C002464FEAE0784C
:100D400000EB58784FEAE808A0EBC8094FF001081B
:100D500008FA09F82CEA080C01464FEAE07800EBA3
:100D600058784FEAE808DFF8249009EBC81808F82B
:100D700003C0591CCBB2A1199942D2DC411CC8B2A4
:100D8000E9198142CBDC00BFB6E700004C0000202F
:100D900038B5002406E0002500E06D1CB5F57A7F2B
:100DA000FBD3641CB4F57A7FF5D30121082000F051
:100DB0009DFA14208DF8030003208DF802004FF4F3
:100DC0008070ADF8000069460848FFF76FFC4FF4EB
:100DD0000070ADF8000069460448FFF767FC012089
:100DE00000F084F9012000F08DF938BD000C0140BD
:100DF00070B50546002411E080212141294009B148
:100E0000012100E00021084600F07CF9012000F0FB
:100E10006DF9002000F06AF9601CC4B2082CEBDB0D
:100E2000012000F063F9002000F060F970BD10B5FA
:100E3000012000F067F9012000F058F9002000F0CF
:100E400061F9002000F052F910BD10B5002000F04B
:100E500059F9012000F04AF9012000F053F910BDC2
:100E600010B5FFF795FFAE2000F058F9D52000F03F
:100E700055F9802000F052F9A82000F04FF93F20EA
:100E800000F04CF9D32000F049F9002000F046F9B9
:100E9000402000F043F9A12000F040F9C82000F004
:100EA0003DF9DA2000F03AF9122000F037F98120FC
:100EB00000F034F9CF2000F031F9D92000F02EF9FC
:100EC000F12000F02BF9DB2000F028F9302000F0B1
:100ED00025F9A42000F022F9A62000F01FF98D20AA
:100EE00000F01CF9142000F019F9AF2000F016F9F9
:100EF00010BD70B505460C4645F0B00000F00EF987
:100F0000102141EA141000F009F904F00F0000F07C
:100F100005F970BDF8B506460F4614461D46082D66
:100F20000CD1A4F120000E4901EB0010102308227F
:100F300039460090304600F017F80FE0062D0DD12D
:100F4000A4F1200000EB4000064901EB400008231B
:100F5000062239460090304600F006F8F8BD000041
:100F600024190008141F00082DE9F04707460C4615
:100F700090469946DDF820A07F2F01DDBDE8F0877F
:100F80003F2C00DDFAE74B46424621463846FFF744
:100F9000ABFE002570E0002669E0B8197F2800DD6F
:100FA00067E0E11704EB517105EBE101072900DD72
:100FB000E4E72046E21704EB527205EBE202344B01
:100FC00003EBC212BB19D25C2146E31704EB537347
:100FD000DB10A4EBC30305FB086C1AF80CC00CFA79
:100FE00003FC42EA0C02E31704EB537305EBE30343
:100FF000DFF89CC00CEBC31307EB060C03F80C20C6
:10100000E11704EB517105EBE101491C072900DDF3
:101010002BE02046E21704EB527205EBE202521C71
:101020001B4B03EBC212BB19D25C2146E31704EB46
:101030005373DB10A4EBC303C3F1080305FB086C77
:101040001AF80CC04CFA03FC42EA0C02E31704EB5A
:10105000537305EBE3035B1CDFF834C00CEBC313E5
:1010600007EB060C03F80C2000BF701CC6B2464507
:1010700093DB00BF681CC5B2A9F10100C11700EBEA
:101080005171012202EBE101A94284DC00BF75E746
:101090004C0000202DE9F0410646884615461F46C3
:1010A000002409E02A5D04FB0761C8B23B464146C3
:1010B000FFF730FF601CC4B2285D0028F2D1BDE804
:1010C000F081000010B500240BE000212046FFF75E
:1010D00010FF054901EBC410802100F02FF8601CBF
:1010E000C4B2082CF1DB10BD4C00002010B5044642
:1010F00022464FF480710248FFF770FB10BD0000DC
:10110000000C014010B5044622464FF4007102481D
:10111000FFF764FB10BD0000000C014010B5044651
:10112000FFF785FE7820FFF763FE0020FFF760FEE3
:101130002046FFF75DFEFFF788FE10BD70B505463F
:101140000E46FFF774FE7820FFF752FE4020FFF7AF
:101150004FFE002404E0285DFFF74AFE601CC4B285
:10116000B442F8DBFFF771FE70BD704770B54F48B1
:101170004F4A128881188022FFF764FD06464C48CA
:1011800000884C49098888425BDD49480088C0F1E5
:10119000800085B248480088304480283DDB4648BE
:1011A0000088C0F1800084B2A5421ADB3F4A404B60
:1011B0001B88D118414A404B1B88D0182246FFF7A4
:1011C00044F92A1B3A4800882044384BC1183B4850
:1011D000FFF73BF939492944081B3449FFF7F2F876
:1011E0001AE0324A324B1B88D118344A324B1B88E2
:1011F000D0182A46FFF729F9601B84B22F492E4ADE
:1012000012881144081922462849FFF71EF9274879
:1012100001192A48FFF7D6F812E0244A244B1B880C
:10122000D118264A244B1B88D0182A46FFF70DF9FF
:10123000214909882944214A88181C49FFF7C2F826
:1012400028E01D4800883044802819DB1A480088AF
:10125000C0F1800084B2154A154B1B88D118174A7B
:10126000154B1B88D0182246FFF7EFF8321B1048A9
:10127000008820440D4BC1181048FFF7E6F809E03C
:101280000A4A0B4B1B88D1180C4A0B4B1B88D018F1
:10129000FFF798F8084909888819C11700EB5161D0
:1012A000C911A0EBC111044A118070BD880400204F
:1012B0002A000020280000202E0000200805002021
:1012C00008490988084A12888818C11700EB51613B
:1012D000C911A0EBC111034A118000200249088006
:1012E00070470000300000203200002029B1064A7B
:1012F00092690243044B9A6104E0034A9269824373
:10130000014B9A61704700000010024030B5002187
:101310000022002400232D4D6D6805F00C0121B141
:10132000042905D0082923D105E0294D056022E0D4
:10133000274D05601FE0254D6D6805F47012234DA3
:101340006D6805F48034022505EB92421CB9214DED
:10135000554305600BE01D4D6D6805F400351DB16A
:101360001C4D5543056002E0194D5543056002E0F0
:10137000174D056000BF00BF144D6D6805F0F0010A
:101380000909154D6B5C0568DD4045600F4D6D68C2
:1013900005F4E061090A104D6B5C4568DD4085602D
:1013A0000A4D6D6805F46051C90A0B4D6B5C4568C8
:1013B000DD40C560054D6D6805F44041890B074D62
:1013C0006B5CC568B5FBF3F5056130BD00100240EC
:1013D00000127A0000093D000000002010000020EB
:1013E0007047000000B587B001218803FFF77EFF3A
:1013F00001210420FFF77AFF18208DF81B004FF41D
:101400000070ADF8180003208DF81A0006A92148D5
:10141000FFF74CF948208DF81B004FF48060ADF8C1
:10142000180003208DF81A0006A91A48FFF73EF9A4
:101430004FF4165002900020ADF814000C20ADF8C7
:1014400012000020ADF81000ADF80E00ADF80C0051
:1014500002A9114800F0B4F9012240F225510E48CA
:1014600000F089F94FF4A060FFF734FC25208DF8D7
:10147000040001208DF807008DF805008DF80600A6
:1014800001A8FFF7EFFB0121034800F03EF907B088
:1014900000BD0000000801400038014010B500F018
:1014A00001F810BD0CB50020019000903348006891
:1014B00040F480303149086000BF3048006800F4D3
:1014C000003000900198401C0190009818B90198D4
:1014D000B0F5A06FF1D12948006800F4003010B1D8
:1014E0000120009001E0002000900098012843D1E5
:1014F0002348006840F01000214908600846006851
:1015000020F0030008600846006840F00200086010
:101510001A484068194948600846406848600846CB
:10152000406840F4806048600846406820F47C10C1
:1015300048600846406840F4E81048600846006883
:1015400040F08070086000BF0C48006800F0007038
:101550000028F9D00948406820F003000749486096
:101560000846406840F00200486000BF03484068F9
:1015700000F00C000828F9D10CBD0000001002405A
:10158000002002407047000010B51348006840F08A
:1015900001001149086008464068104908400E499A
:1015A0004860084600680E4908400B490860084634
:1015B000006820F4802008600846406820F4FE009F
:1015C00048604FF41F008860FFF768FF4FF000602D
:1015D0000449086010BD0000001002400000FFF840
:1015E000FFFFF6FE08ED00E010B50121880700F0CE
:1015F0000CF8012805D1FFF7E7F90121880700F071
:1016000001F810BDCA430282704730B5024600207F
:1016100000230024158A05EA0103958905EA0104DF
:1016200013B10CB1012000E0002030BD70B50546BB
:101630000E4605EB4500064901EB8000846803E097
:101640003046216888476468002CF9D170BD0000DD
:101650006404002010B540F225511D4800F061F8E7
:10166000A0B31C4800781C490870194800F014F910
:1016700018490870084600781849194A1288885491
:1016800017490988481CC11700EB5161C911A0EB2B
:10169000C111134A1180104800780D2811D10D484E
:1016A00000780A280DD100200C49128888540D4872
:1016B00000880D4908800A4800880A490880FFF719
:1016C00055FD40F22551024800F010F810BD000011
:1016D0000038014039000020380000208804002034
:1016E000280000202C0000202A00002010B5002235
:1016F000002340F66A14A14200D100BF0A1201245F
:101700009440A3B2DC43048010BD21B1828942F42D
:101710000052828104E082894DF6FF731A40828173
:10172000704770B50246002400230025002040F6D3
:101730006A16B14200D100BFC1F3421501F01F0388
:10174000012606FA03F3012D02D19689334006E003
:10175000022D02D1168A334001E0968A33400C12E2
:10176000012606FA04F41688344013B10CB10120A6
:1017700000E0002070BDF0B50346002400260025DF
:10178000002040F66A17B94200D100BF1846C1F3E5
:10179000421401F01F06012707FA06F5012C01D1BA
:1017A0000C3004E0022C01D1103000E014301AB1EA
:1017B00007682F43076002E00768AF430760F0BD8A
:1017C0002DE9F04786B005460E460024A24600BF2C
:1017D000A1460027B08900B100BF2F462C8A4CF6E5
:1017E000FF700440F08804432C82AC894EF6F3105D
:1017F0000440B08831890843718908430443AC81AF
:10180000AC8A4FF6FF400440B0890443AC8201A883
:10181000FFF77CFD1F48874202D1DDF810A001E0F0
:10182000DDF80CA0A88900F4004040B10AEBCA0022
:1018300000EB0A1031684900B0FBF1F807E00AEB51
:10184000CA0000EB0A1031688900B0FBF1F864208F
:10185000B8FBF0F004012009642101FB1089A8897C
:1018600000F4004040B1322000EBC900B0FBF1F0C1
:1018700000F00700044308E0322000EB0910642167
:10188000B0FBF1F000F00F0004432C8106B0BDE87E
:10189000F08700000038014001468888C0F3080046
:1018A000704700BFFEE730380A2801D20120704798
:1018B0000020704700BF704700BF054A128802F041
:1018C0004002002AF9D0C2B2014B1B1D1A8070479A
:1018D00000380140FFF7C4FAFFF774F9FFF782FD03
:1018E00008230AA200210846FFF7D4FB08230AA216
:1018F00010210020FFF7CEFBFFF7E4FB05E0FFF728
:101900007FF8FFF7DDFCFFF7DDFBF8E74C454430DF
:10191000204F4646000000004C454431204F4646CB
:1019200000000000000000000000000000000000B7
:1019300000000000000000F800000000000000337C
:101940003000000000160E00160E0000000000001F
:101950000000000040C07840C0784000043F04040C
:101960003F040400007088FC08300000001820FFCD
:10197000211E0000F008F000E018000000211C0308
:101980001E211E0000F00888700000001E21232484
:1019900019272110000000160E00000000000000B2
:1019A00000000000000000E0180402000000000732
:1019B0001820400000020418E00000000040201839
:1019C00007000000404080F0804040000202010F0C
:1019D00001020200000000F0000000000101011FF0
:1019E00001010100000000000000000000B07000D4
:1019F00000000000000000000000000000010101E4
:101A00000101010100000000000000000030300072
:101A1000000000000000000080601804006018064C
:101A20000100000000E010080810E000000F102086
:101A300020100F00001010F8000000000020203FD0
:101A4000202000000070080808887000003028245A
:101A500022213000003008888848300000182020FB
:101A600020110E000000C02010F800000007042420
:101A7000243F240000F80888880808000019212065
:101A800020110E0000E0108888180000000F1120BF
:101A900020110E0000380808C83808000000003F78
:101AA000000000000070880808887000001C2221D7
:101AB00021221C0000E010080810E0000000312284
:101AC00022110F00000000C0C00000000000003024
:101AD00030000000000000C0C0000000000080B026
:101AE0007000000000008040201008000001020487
:101AF00008102000404040404040400004040404DE
:101B00000404040000081020408000000020100899
:101B100004020100007048080808F00000000030CE
:101B200036010000C030C828E810E000071827245C
:101B300023140B000000C038E0000000203C23020A
:101B40000227382008F8888888700000203F20206D
:101B500020110E00C030080808083800071820209F
:101B60002010080008F808080810E000203F202096
:101B700020100F0008F88888E8081000203F202077
:101B80002320180008F88888E8081000203F20006B
:101B900003000000C03008080838000007182020A3
:101BA000221E020008F808000008F808203F210162
:101BB00001213F20000808F8080800000020203F0D
:101BC0002020000000000808F8080800C08080807D
:101BD0007F00000008F888C028180800203F200176
:101BE0002638200008F8080000000000203F2020D0
:101BF0002020300008F8F800F8F80800203F003FE7
:101C0000003F200008F830C00008F808203F2000FE
:101C100007183F00E01008080810E0000F1020200F
:101C200020100F0008F808080808F000203F2101E4
:101C300001010000E01008080810E0000F1824243B
:101C400038504F0008F8888888887000203F2000AE
:101C5000030C302000708808080838000038202164
:101C600021221C00180808F8080818000000203F6E
:101C70002000000008F808000008F808001F2020D5
:101C800020201F000878880000C8380800000738A6
:101C90000E010000F80800F80008F800033C0700F7
:101CA000073C0300081868808068180820302C035F
:101CB000032C30200838C800C83808000000203F36
:101CC0002000000010080808C83808002038262125
:101CD00020201800000000FE020202000000007F29
:101CE00040404000000C30C0000000000000000137
:101CF0000638C00000020202FE0000000040404022
:101D00007F000000002010080408102000000000E0
:101D100000000000000000000000000080808080C3
:101D200080808080000204080000000000000000A5
:101D30000000000000008080808000000019242244
:101D400022223F2008F8008080000000003F112080
:101D500020110E000000008080800000000E112085
:101D600020201100000000808088F800000E112063
:101D700020103F200000808080800000001F222271
:101D800022221300008080F0888888180020203FDD
:101D9000202000000000808080808000006B9494F0
:101DA0009493600008F8008080800000203F2100AC
:101DB00000203F2000809898000000000020203F75
:101DC00020200000000000809898000000C0808063
:101DD000807F000008F8000080808000203F2402FF
:101DE0002D302000000808F8000000000020203FEF
:101DF000202000008080808080808000203F2000A4
:101E00003F20003F008080008080000000203F21B4
:101E100000203F200000808080800000001F2020E4
:101E200020201F00808000808000000080FFA12013
:101E300020110E000000008080808000000E112024
:101E400020A0FF80808080008080800020203F21B3
:101E50002000010000008080808080000033242466
:101E600024241900008080E0808000000000001F12
:101E7000202000008080000000808000001F2020C3
:101E800020103F20808080000080808000010E3084
:101E90000806010080800080008080800F300C03E5
:101EA0000C300F0000808000808080000020312EE8
:101EB0000E312000808080000080808080818E70C4
:101EC0001806010000808080808080000021302C76
:101ED0002221300000000000807C0202000000008F
:101EE000003F404000000000FF0000000000000034
:101EF000FF0000000002027C800000000040403F24
:101F000000000000008040408000008000000000D1
:101F1000000101000000000000000000002F000090
:101F200000000700070000147F147F1400242A7F9C
:101F30002A1200231308646200364955225000001B
:101F40000007000000001C224100000041221C008C
:101F50000014083E08140008083E0808000000A00D
:101F60006000000808080808000060600000002009
:101F700010080402003E5149453E0000427F4000E7
:101F8000004261514946002141454B31001814126D
:101F90007F10002745454539003C4A49493000013A
:101FA0007109050300364949493600064949291E89
:101FB00000003636000000005636000000081422EB
:101FC00041000014141414140000412214080002EB
:101FD00001510906003E4955592E007C1211127C10
:101FE000007F49494936003E41414122007F41413D
:101FF000221C007F49494941007F09090901003E2F
:102000004149497A007F0808087F0000417F41006C
:10201000002040413F01007F08142241007F4040E2
:102020004040007F020C027F007F0408107F003ECA
:102030004141413E007F09090906003E4151215EB0
:10204000007F091929460046494949310001017FAD
:102050000101003F4040403F001F2040201F003F43
:102060004038403F006314081463000708700807F5
:1020700000615149454300007F41410000020408CE
:102080001020000041417F000004020102040040D2
:1020900040404040000001020400002054545478A5
:1020A000007F4844443800384444442000384444C5
:1020B000487F00385454541800087E090102001863
:1020C000A4A4A47C007F080404780000447D4000A0
:1020D000004080847D00007F102844000000417F84
:1020E0004000007C04180478007C08040478003860
:1020F0004444443800FC242424180018242418FCE8
:10210000007C0804040800485454542000043F4450
:102110004020003C4040207C001C2040201C003C13
:102120004030403C004428102844001CA0A0A07C63
:10213000004464544C440000087F41000000007FCC
:1021400000000000417F0800000804081008EFBCF0
:102150008C000000000000000000000000000000F3
:1021600000000000583800000000000000000000DF
:102170000000E3808200000000000000000000007A
:1021800000000000000000001824241800000000D7
:10219000000000000000E4BDA000008060F80740DF
:1021A00020180F08C80808281800010000FF0010B8
:1021B0000C0340807F0001061800E5A5BD0010104B
:1021C000F01F10F000808282E2928A868000402216
:1021D00015081661000040807F0000000000E4B890
:1021E0009600202020FE2020FF202020FF202020FD
:1021F00020000000007F40404744444447404040A6
:102200000000E7958C00000000FE929292FE9292F0
:1022100092FE0000000008080484621E010001FE16
:1022200002040408080000000000FF010101310958
:10223000090909897101010101FFFF808080808007
:10224000809681808080808080FFFF01818181FD78
:102250008991A1C1FD81818101FFFF808080809FE4
:10226000888482819F80808080FF040000080000B5
:102270000000000000020001000010004C45443046
:10228000204F46460D0A00004C454431204F46463B
:102290000D0A00004C454430204F4E0D0A0000004E
:1022A0004C454431204F4E0D0A000000CC2200085E
:1022B000000000204C00000028010008182300083E
:1022C0004C0000209C0B00004401000800000000AE
:1022D00001020304010203040607080902040608B8
:1022E00000000000000000000000000000000000EE
:1022F00000000000000000000000000000000000DE
:102300000000000000000000942200087C22000869
:08231000A02200088822000849
:04000005080000ED02
:00000001FF
